{
  "_format": "hh3-artifact-1",
  "contractName": "EvidenceVault",
  "sourceName": "contracts/EvidenceVault.sol",
  "abi": [
    {
      "anonymous": false,
      "inputs": [
        {
          "indexed": true,
          "internalType": "string",
          "name": "fileHash",
          "type": "string"
        },
        {
          "indexed": true,
          "internalType": "address",
          "name": "uploader",
          "type": "address"
        }
      ],
      "name": "EvidenceStored",
      "type": "event"
    },
    {
      "inputs": [
        {
          "internalType": "uint256",
          "name": "",
          "type": "uint256"
        }
      ],
      "name": "allHashes",
      "outputs": [
        {
          "internalType": "string",
          "name": "",
          "type": "string"
        }
      ],
      "stateMutability": "view",
      "type": "function"
    },
    {
      "inputs": [],
      "name": "getAllHashes",
      "outputs": [
        {
          "internalType": "string[]",
          "name": "",
          "type": "string[]"
        }
      ],
      "stateMutability": "view",
      "type": "function"
    },
    {
      "inputs": [
        {
          "internalType": "string",
          "name": "_fileHash",
          "type": "string"
        }
      ],
      "name": "getEvidence",
      "outputs": [
        {
          "internalType": "string",
          "name": "",
          "type": "string"
        },
        {
          "internalType": "uint256",
          "name": "",
          "type": "uint256"
        },
        {
          "internalType": "address",
          "name": "",
          "type": "address"
        }
      ],
      "stateMutability": "view",
      "type": "function"
    },
    {
      "inputs": [
        {
          "internalType": "string",
          "name": "_fileHash",
          "type": "string"
        }
      ],
      "name": "storeEvidence",
      "outputs": [],
      "stateMutability": "nonpayable",
      "type": "function"
    }
  ],
  "bytecode": "0x6080604052348015600e575f5ffd5b50610dc98061001c5f395ff3fe608060405234801561000f575f5ffd5b506004361061004a575f3560e01c8063313ef0961461004e57806334dbf0e11461007e578063b16c6ee71461009a578063fe99f742146100cc575b5f5ffd5b610068600480360381019061006391906105cc565b6100ea565b6040516100759190610667565b60405180910390f35b610098600480360381019061009391906107b3565b610190565b005b6100b460048036038101906100af91906107b3565b610335565b6040516100c393929190610848565b60405180910390f35b6100d46104b4565b6040516100e19190610987565b60405180910390f35b600181815481106100f9575f80fd5b905f5260205f20015f915090508054610111906109d4565b80601f016020809104026020016040519081016040528092919081815260200182805461013d906109d4565b80156101885780601f1061015f57610100808354040283529160200191610188565b820191905f5260205f20905b81548152906001019060200180831161016b57829003601f168201915b505050505081565b5f5f826040516101a09190610a3e565b908152602001604051809103902060010154146101f2576040517f08c379a00000000000000000000000000000000000000000000000000000000081526004016101e990610a9e565b60405180910390fd5b60405180606001604052808281526020014281526020013373ffffffffffffffffffffffffffffffffffffffff168152505f826040516102329190610a3e565b90815260200160405180910390205f820151815f0190816102539190610c5c565b50602082015181600101556040820151816002015f6101000a81548173ffffffffffffffffffffffffffffffffffffffff021916908373ffffffffffffffffffffffffffffffffffffffff160217905550905050600181908060018154018082558091505060019003905f5260205f20015f9091909190915090816102d89190610c5c565b503373ffffffffffffffffffffffffffffffffffffffff16816040516102fe9190610a3e565b60405180910390207f061971fffea4b39b92135d32381c3dc168492d434ddc60b86d92f91e561fc3f360405160405180910390a350565b60605f5f5f5f856040516103499190610a3e565b90815260200160405180910390206040518060600160405290815f82018054610371906109d4565b80601f016020809104026020016040519081016040528092919081815260200182805461039d906109d4565b80156103e85780601f106103bf576101008083540402835291602001916103e8565b820191905f5260205f20905b8154815290600101906020018083116103cb57829003601f168201915b5050505050815260200160018201548152602001600282015f9054906101000a900473ffffffffffffffffffffffffffffffffffffffff1673ffffffffffffffffffffffffffffffffffffffff1673ffffffffffffffffffffffffffffffffffffffff168152505090505f816020015103610498576040517f08c379a000000000000000000000000000000000000000000000000000000000815260040161048f90610d75565b60405180910390fd5b805f015181602001518260400151935093509350509193909250565b60606001805480602002602001604051908101604052809291908181526020015f905b8282101561057f578382905f5260205f200180546104f4906109d4565b80601f0160208091040260200160405190810160405280929190818152602001828054610520906109d4565b801561056b5780601f106105425761010080835404028352916020019161056b565b820191905f5260205f20905b81548152906001019060200180831161054e57829003601f168201915b5050505050815260200190600101906104d7565b50505050905090565b5f604051905090565b5f5ffd5b5f5ffd5b5f819050919050565b6105ab81610599565b81146105b5575f5ffd5b50565b5f813590506105c6816105a2565b92915050565b5f602082840312156105e1576105e0610591565b5b5f6105ee848285016105b8565b91505092915050565b5f81519050919050565b5f82825260208201905092915050565b8281835e5f83830152505050565b5f601f19601f8301169050919050565b5f610639826105f7565b6106438185610601565b9350610653818560208601610611565b61065c8161061f565b840191505092915050565b5f6020820190508181035f83015261067f818461062f565b905092915050565b5f5ffd5b5f5ffd5b7f4e487b71000000000000000000000000000000000000000000000000000000005f52604160045260245ffd5b6106c58261061f565b810181811067ffffffffffffffff821117156106e4576106e361068f565b5b80604052505050565b5f6106f6610588565b905061070282826106bc565b919050565b5f67ffffffffffffffff8211156107215761072061068f565b5b61072a8261061f565b9050602081019050919050565b828183375f83830152505050565b5f61075761075284610707565b6106ed565b9050828152602081018484840111156107735761077261068b565b5b61077e848285610737565b509392505050565b5f82601f83011261079a57610799610687565b5b81356107aa848260208601610745565b91505092915050565b5f602082840312156107c8576107c7610591565b5b5f82013567ffffffffffffffff8111156107e5576107e4610595565b5b6107f184828501610786565b91505092915050565b61080381610599565b82525050565b5f73ffffffffffffffffffffffffffffffffffffffff82169050919050565b5f61083282610809565b9050919050565b61084281610828565b82525050565b5f6060820190508181035f830152610860818661062f565b905061086f60208301856107fa565b61087c6040830184610839565b949350505050565b5f81519050919050565b5f82825260208201905092915050565b5f819050602082019050919050565b5f82825260208201905092915050565b5f6108c7826105f7565b6108d181856108ad565b93506108e1818560208601610611565b6108ea8161061f565b840191505092915050565b5f61090083836108bd565b905092915050565b5f602082019050919050565b5f61091e82610884565b610928818561088e565b93508360208202850161093a8561089e565b805f5b85811015610975578484038952815161095685826108f5565b945061096183610908565b925060208a0199505060018101905061093d565b50829750879550505050505092915050565b5f6020820190508181035f83015261099f8184610914565b905092915050565b7f4e487b71000000000000000000000000000000000000000000000000000000005f52602260045260245ffd5b5f60028204905060018216806109eb57607f821691505b6020821081036109fe576109fd6109a7565b5b50919050565b5f81905092915050565b5f610a18826105f7565b610a228185610a04565b9350610a32818560208601610611565b80840191505092915050565b5f610a498284610a0e565b915081905092915050565b7f45766964656e636520616c7265616479206578697374730000000000000000005f82015250565b5f610a88601783610601565b9150610a9382610a54565b602082019050919050565b5f6020820190508181035f830152610ab581610a7c565b9050919050565b5f819050815f5260205f209050919050565b5f6020601f8301049050919050565b5f82821b905092915050565b5f60088302610b187fffffffffffffffffffffffffffffffffffffffffffffffffffffffffffffffff82610add565b610b228683610add565b95508019841693508086168417925050509392505050565b5f819050919050565b5f610b5d610b58610b5384610599565b610b3a565b610599565b9050919050565b5f819050919050565b610b7683610b43565b610b8a610b8282610b64565b848454610ae9565b825550505050565b5f5f905090565b610ba1610b92565b610bac818484610b6d565b505050565b5b81811015610bcf57610bc45f82610b99565b600181019050610bb2565b5050565b601f821115610c1457610be581610abc565b610bee84610ace565b81016020851015610bfd578190505b610c11610c0985610ace565b830182610bb1565b50505b505050565b5f82821c905092915050565b5f610c345f1984600802610c19565b1980831691505092915050565b5f610c4c8383610c25565b9150826002028217905092915050565b610c65826105f7565b67ffffffffffffffff811115610c7e57610c7d61068f565b5b610c8882546109d4565b610c93828285610bd3565b5f60209050601f831160018114610cc4575f8415610cb2578287015190505b610cbc8582610c41565b865550610d23565b601f198416610cd286610abc565b5f5b82811015610cf957848901518255600182019150602085019450602081019050610cd4565b86831015610d165784890151610d12601f891682610c25565b8355505b6001600288020188555050505b505050505050565b7f45766964656e6365206e6f7420666f756e6400000000000000000000000000005f82015250565b5f610d5f601283610601565b9150610d6a82610d2b565b602082019050919050565b5f6020820190508181035f830152610d8c81610d53565b905091905056fea26469706673582212207ef1c1b17e0ef1fb752f47031e0495574e417e888287e7d354f52e603a02835564736f6c634300081c0033",
  "linkReferences": {},
  "deployedLinkReferences": {},
  "immutableReferences": {},
  "inputSourceName": "project/contracts/EvidenceVault.sol",
  "buildInfoId": "solc-0_8_28-af890031163530bbf7b1521c2a7dccee7cbd6028"
}