{
  "_format": "hh3-artifact-1",
  "contractName": "EvidenceVault",
  "sourceName": "contracts/EvidenceVault.sol",
  "abi": [
    {
      "anonymous": false,
      "inputs": [
        {
          "indexed": true,
          "internalType": "string",
          "name": "fileHash",
          "type": "string"
        },
        {
          "indexed": true,
          "internalType": "address",
          "name": "uploader",
          "type": "address"
        }
      ],
      "name": "EvidenceStored",
      "type": "event"
    },
    {
      "inputs": [
        {
          "internalType": "uint256",
          "name": "",
          "type": "uint256"
        }
      ],
      "name": "allHashes",
      "outputs": [
        {
          "internalType": "string",
          "name": "",
          "type": "string"
        }
      ],
      "stateMutability": "view",
      "type": "function"
    },
    {
      "inputs": [],
      "name": "getAllHashes",
      "outputs": [
        {
          "internalType": "string[]",
          "name": "",
          "type": "string[]"
        }
      ],
      "stateMutability": "view",
      "type": "function"
    },
    {
      "inputs": [
        {
          "internalType": "string",
          "name": "_fileHash",
          "type": "string"
        }
      ],
      "name": "getEvidence",
      "outputs": [
        {
          "internalType": "string",
          "name": "",
          "type": "string"
        },
        {
          "internalType": "uint256",
          "name": "",
          "type": "uint256"
        },
        {
          "internalType": "address",
          "name": "",
          "type": "address"
        }
      ],
      "stateMutability": "view",
      "type": "function"
    },
    {
      "inputs": [
        {
          "internalType": "string",
          "name": "_fileHash",
          "type": "string"
        }
      ],
      "name": "storeEvidence",
      "outputs": [],
      "stateMutability": "nonpayable",
      "type": "function"
    }
  ],
  "bytecode": "0x6080604052348015600e575f5ffd5b5061082c8061001c5f395ff3fe608060405234801561000f575f5ffd5b506004361061004a575f3560e01c8063313ef0961461004e57806334dbf0e114610077578063b16c6ee71461008c578063fe99f742146100ae575b5f5ffd5b61006161005c3660046104e7565b6100c3565b60405161006e919061052c565b60405180910390f35b61008a610085366004610559565b610169565b005b61009f61009a366004610559565b6102d3565b60405161006e9392919061060c565b6100b6610413565b60405161006e919061063e565b600181815481106100d2575f80fd5b905f5260205f20015f9150905080546100ea906106a1565b80601f0160208091040260200160405190810160405280929190818152602001828054610116906106a1565b80156101615780601f1061013857610100808354040283529160200191610161565b820191905f5260205f20905b81548152906001019060200180831161014457829003601f168201915b505050505081565b5f8160405161017891906106d9565b9081526020016040518091039020600101545f146101dd5760405162461bcd60e51b815260206004820152601760248201527f45766964656e636520616c72656164792065786973747300000000000000000060448201526064015b60405180910390fd5b60408051606081018252828152426020820152338183015290515f906102049084906106d9565b90815260405190819003602001902081518190610221908261073b565b506020820151600182810191909155604090920151600290910180546001600160a01b0319166001600160a01b03909216919091179055805480820182555f919091527fb10e2d527612073b26eecdfd717e6a320cf44b4afac2b0732d9fcbe2b7fa0cf601610290828261073b565b5060405133906102a19083906106d9565b604051908190038120907f061971fffea4b39b92135d32381c3dc168492d434ddc60b86d92f91e561fc3f3905f90a350565b60605f5f5f5f856040516102e791906106d9565b90815260200160405180910390206040518060600160405290815f8201805461030f906106a1565b80601f016020809104026020016040519081016040528092919081815260200182805461033b906106a1565b80156103865780601f1061035d57610100808354040283529160200191610386565b820191905f5260205f20905b81548152906001019060200180831161036957829003601f168201915b505050918352505060018201546020808301919091526002909201546001600160a01b03166040909101528101519091505f036103fa5760405162461bcd60e51b8152602060048201526012602482015271115d9a59195b98d9481b9bdd08199bdd5b9960721b60448201526064016101d4565b8051602082015160409092015190969195509350915050565b60606001805480602002602001604051908101604052809291908181526020015f905b828210156104de578382905f5260205f20018054610453906106a1565b80601f016020809104026020016040519081016040528092919081815260200182805461047f906106a1565b80156104ca5780601f106104a1576101008083540402835291602001916104ca565b820191905f5260205f20905b8154815290600101906020018083116104ad57829003601f168201915b505050505081526020019060010190610436565b50505050905090565b5f602082840312156104f7575f5ffd5b5035919050565b5f81518084528060208401602086015e5f602082860101526020601f19601f83011685010191505092915050565b602081525f61053e60208301846104fe565b9392505050565b634e487b7160e01b5f52604160045260245ffd5b5f60208284031215610569575f5ffd5b813567ffffffffffffffff81111561057f575f5ffd5b8201601f8101841361058f575f5ffd5b803567ffffffffffffffff8111156105a9576105a9610545565b604051601f8201601f19908116603f0116810167ffffffffffffffff811182821017156105d8576105d8610545565b6040528181528282016020018610156105ef575f5ffd5b816020840160208301375f91810160200191909152949350505050565b606081525f61061e60608301866104fe565b6020830194909452506001600160a01b0391909116604090910152919050565b5f602082016020835280845180835260408501915060408160051b8601019250602086015f5b8281101561069557603f198786030184526106808583516104fe565b94506020938401939190910190600101610664565b50929695505050505050565b600181811c908216806106b557607f821691505b6020821081036106d357634e487b7160e01b5f52602260045260245ffd5b50919050565b5f82518060208501845e5f920191825250919050565b601f82111561073657805f5260205f20601f840160051c810160208510156107145750805b601f840160051c820191505b81811015610733575f8155600101610720565b50505b505050565b815167ffffffffffffffff81111561075557610755610545565b6107698161076384546106a1565b846106ef565b6020601f82116001811461079b575f83156107845750848201515b5f19600385901b1c1916600184901b178455610733565b5f84815260208120601f198516915b828110156107ca57878501518255602094850194600190920191016107aa565b50848210156107e757868401515f19600387901b60f8161c191681555b50505050600190811b0190555056fea2646970667358221220a686f74fdf9bb2d029d3da20f21674164c1a18082a7f03fed5d1f3895bca3f7464736f6c634300081c0033",
  "linkReferences": {},
  "deployedLinkReferences": {},
  "immutableReferences": {},
  "inputSourceName": "project/contracts/EvidenceVault.sol",
  "buildInfoId": "solc-0_8_28-9f2a42986f26d228047a48a3e144c46592c2f432"
}